:04000000803118280B
:100008007E14803120007F08ED000B1F132821008B
:10001800911D13282000911D132882318822200069
:100028006D08FF007E10090080311A2820308400F6
:100038000030850048308231F3227E102000813163
:100048007F29FD00FA282000E501E50A0800670875
:10005800E8006808E600E401E40A8A28640803194D
:100068003D286708E800E9016808E2006908E3003C
:1000780076286708E800E9016808E900E8016208ED
:100088006807E2006308693DE30021306606031D46
:1000980056286308F1006208F000013082316222BC
:1000A80080317628223020006606031D6428630804
:1000B800F1006208F0000230823162228031762835
:1000C800303020006602031C76283430660203189C
:1000D80076286308F1006208F0006608D03E813196
:1000E8000921803120006408031D7C2801307D2807
:1000F8000030E8006808E4008A2820006508003A13
:1001080003193228013A03192B288A28E501080027
:100118002000660A031D94284730FA004F309C28B7
:10012800FE3020006606031D9E280330FA000130C9
:10013800FB00E6282030200066020318B428640873
:100148000319AF2866088231AA228031710820007D
:10015800E3007008E2006308FB006208FA00E62882
:10016800213020006606031DBC2822001908C32878
:10017800223020006606031DCE2822001B0820001E
:10018800E800E9016808FA006908FB006408EA0069
:100198006A08E928303020006602031CE128343060
:1001A80066020318E1286608D03E8131DD218031DE
:1001B8007108FB007008FA00E528AD30FA00DE305F
:1001C800FB0020006408E8006808FC008231EC228B
:1001D80080312400910020006408031DF5280130B7
:1001E800F6280030E8006808E40008007D08003AB6
:1001F80003192728013A03198C28033A031981287F
:10020800013A0319082908290800F400043071028A
:10021800003003197002031C7029FF30F00003300E
:10022800F10070297108F3007008F200F336F20C3F
:10023800F336F20C72082C00980070080339F200AB
:100248000530F235FF3E031D252972359700080059
:100258007108F3007008F200F336F20CF336F20C72
:1002680072082C009B0070080339F2000530F23543
:10027800FF3E031D3B2972359A0008007108F30000
:100288007008F200F336F20CF336F20C720825000F
:10029800980070080339F2000430F235890B5129AF
:1002A8001A08CF3972049A0008007108F300700820
:1002B800F200F336F20CF336F20C720825009100C6
:1002C80070080339F2000430F235890B68291308E5
:1002D800CF397204930008007408003A03191629EC
:1002E800013A03192C29033A03194229013A03193F
:1002F80059297E29080022008C018D018E01FD30CC
:1003080021008C00FC308D00F8308E000830900001
:100318003F3023008C003F308D00E4308E002400F5
:100328008C018D018E0190012100951725008C010B
:100338008D018E013D002208E0390C38A200210809
:10034800E0390D38A1002408E0391138A4003C0038
:100358002108E0391438A1003D002308E03910389D
:10036800A3003C002008E0391338A0003D0018081D
:10037800E0390E3898002008E0390F38A0007030B6
:100388002100990098012200960121001A1FC9290D
:10039800163097008231D52281318231382281315D
:1003A8008231C42281318231E32281318B170B17CC
:1003B800DC29F900242A2C001708F2000630F2364E
:1003C800890BE3297208FD292C001A08F20006306F
:1003D800F236890BEC297208F300F4011B080D2A88
:1003E80025001A08F2000430F236890BF829720841
:1003F8000339F300F40118080D2A25001308F20048
:100408000430F236890B052A72080339F300F40127
:100418001108F500F601F535F60DF535F60D7308FA
:100428007507F7007408763DF80077082000E000AB
:100438007808222AAD302000E000DE30E100322AC0
:100448007908003A0319DF29013A0319E829033A20
:100458000319F429013A0319012A1E2A2000610808
:10046800F1006008F0000800F93020009B009A01B4
:10047800911007309C0080302C009C009B019A0151
:100488003F3025009E050C309A001A08CF399A0093
:1004980098019901F3309E050C3093001308CF3969
:1004A80093009101FC309E0580302C0099007D302E
:1004B80098009701CF3025009E050800F2007203CE
:1004C800031D752A01307102003003197002031CE4
:1004D800712AFF30F0000030F10070082200990006
:1004E800080002307206031D080000307102203037
:1004F80003197002031C842A1F30F0000030F10039
:10050800700822009B0008002000EC0191112400D3
:1005180011082000EB006B08EC002400141D9B2A36
:10052800941A161F992A0330A52A0130A52A941A6D
:100538009F2A0030A52A20006C08EB006B08E70012
:10054800023080312520240015160800F3007308B6
:100558001F39F200F20DF20D21001D0872068339D1
:1005680072069D001D148530890BB82A00002100F1
:100578009D149D18BD2A1C08F1001B08F0000800F6
:10058800AA3022009700883098009901D2302A00BA
:100598009100883022009A009B01D1302A009500F2
:1005A8000800240094012630950001309600970138
:1005B800103092002000911121009115080001309F
:1005C80021009D00D0309E009F019B019C010800E6
:1005D8007C080319F12A7A0808007B0808006400DF
:0A05E80080010131890BF42A003470
:020000040001F9
:04000E00E4FFFFFF0D
:00000001FF
