:04000000803118280B
:100008007E14803120007F08FC000B1F132821007C
:10001800911D13282000911D13288231C0227C08CD
:100028002000FF007E10090080311A288331222326
:100038008031E700833123238031E8008331242392
:100048008031E900FD012030840000308500473010
:1000580083311C237E1020008131B329F5007208FA
:10006800F300F4017308F6007408F7007518752892
:100078008628003020006405F300FF306505F40091
:1000880076087307E4007708743DE500832800309C
:1000980020006205F300FF306305F400760873075B
:1000A800E2007708743DE3008328003020006005F3
:1000B800F300FF306105F40076087307E000770865
:1000C800743DE1008328003020006705F300FF300D
:1000D8006805F40076087307E7007708743DE800C0
:1000E80083287508F13A03193D28023A03194B2869
:1000F800063A03195928023A0319672883288131D7
:10010800502108007608F400F3017308F60074081B
:10011800F700C628FF3020006405F30000306505AD
:10012800F40076087307E4007708743DE5000800DA
:10013800FF3020006205F30000306305F400760804
:100148007307E2007708743DE3000800FF302000E1
:100158006005F30000306105F40076087307E000DD
:100168007708743DE1000800FF3020006705F300C0
:1001780000306805F40076087307E7007708743DD7
:10018800E80008007508F03A03198E28023A0319A6
:100198009C28063A0319AA28023A0319B828D52830
:1001A80008000800F90041292000E601E60A0800D5
:1001B8006908F8007808FD001629F0307D02031C54
:1001C800F228F8307D020318F2286908F800780848
:1001D800F2007D088031322080311629E0307D021E
:1001E800031C0429E2307D02031804292000690851
:1001F800F8007808F0007D088231F4228031162951
:1002080020307D02031816297D0882316F22803143
:10021800162920006608003A0319E128013A031953
:10022800DC2816292000E6010800FD307D06031DA4
:1002380021290130240091000800FE307D06031DAD
:10024800292902302400910008007D0A031D302965
:10025800033024009100080020307D02031C3E2951
:1002680060307D0203183E297D0882311122240066
:10027800910008002400910108007908003A031948
:10028800D828013A03191929033A03190D29013A03
:1002980003194F294F29080020006508F100640858
:1002A800F000F136F00CF136F00C70082C009B00D1
:1002B800200064080339F0000530F035FF3E031DC7
:1002C800612970352C009A0020006308F10062084B
:1002D800F000F136F00CF136F00C700825009800AB
:1002E800200062080339F0000430F035890B7929C1
:1002F80025001A08CF3970049A0020006108F1001F
:100308006008F000F136F00CF136F00C70082500AA
:100318009100200060080339F0000430F035890BA3
:10032800922925001308CF3970049300200068082B
:10033800F1006708F000F136F00CF136F00C7008A7
:100348002C009800200067080339F0000530F035CC
:10035800FF3E031DAB2970352C00970008002200D2
:100368008C018D018E01FD3021008C00FC308D0048
:10037800F8308E00083090003F3023008C003F306A
:100388008D00E4308E0024008C018D018E019001D7
:100398002100951725008C018D018E013D00220852
:1003A800E0390C38A2002108E0390D38A1002408F2
:1003B800E0391138A4003C002108E0391438A100C4
:1003C8003D002308E0391038A3003C002008E0393C
:1003D8001338A0003D001808E0390E3898002008AE
:1003E800E0390F38A00070302100990098012200F0
:1003F800960121001A1FFD29163097008331052325
:10040800813182319C2281318231E32281318331F1
:10041800132381318B170B17102AF3004030730216
:10042800031C282A7308C03EF1007108F300730802
:10043800823140228231003A03193E2A7335203E28
:1004480086008701010808007308E03EF100710882
:10045800F3007308823140228231003A03193E2AA0
:100468007335203E86008701403FF100413FF2008E
:100478007208080000300800F000442A0030080024
:100488007008003A03196D2A023A03196D2A013AD5
:1004980003196D2A073A03196D2A0C3A03196D2AB4
:1004A800013A03196D2A023A03196D2A063A03190B
:1004B8006D2A1F3A03196D2A0E3A03196D2A013A5B
:1004C80003196D2A033A03196D2A013A03196D2A93
:1004D800422A01300800F400740882314022823137
:1004E800003A0319080074081F39F100F10DF10DE5
:1004F80021001D087106833971069D001D14E43022
:1005080000320032890B842A0032003221009D1407
:100518009D188C2A1C08F3001B08F2007435203E35
:10052800860087017208C03F7308C13F00000800B9
:10053800F93020009B009A01911007309C00803010
:100548002C009C009B019A013F3025009E053C3001
:100558009A0098019901F3309E053C30930091016F
:100568009201FC309E0580302C009900980197017B
:10057800CF3025009E0508005530FA007A08FB00A8
:100588002000911124001108FA007A08FB00141DBC
:10059800D42A941A161FD22A0330DE2A0130DE2A02
:1005A800941AD82A0030DE2A7B08FA007A0820003C
:1005B800E90002308031D6202400151608008A3060
:1005C80022009700883098009901D2302A009100C3
:1005D800883022009A009B01D1302A00950008003B
:1005E800F100E0307106031DFD2A70082200990011
:1005F8000800E1307106031D0800700822009B0006
:1006080008002400940126309500013096009701D7
:10061800103092002000911121009115080001303E
:1006280021009D0050309E009F019B019C01080005
:10063800640080010131890B1D2B0034F43401342E
:02064800553427
:020000040001F9
:04000E00E4FFFFFF0D
:00000001FF
